{
  "_format": "hh-sol-artifact-1",
  "contractName": "FIRSystem",
  "sourceName": "contracts/FIR.sol",
  "abi": [
    {
      "inputs": [],
      "stateMutability": "nonpayable",
      "type": "constructor"
    },
    {
      "anonymous": false,
      "inputs": [
        {
          "indexed": false,
          "internalType": "string",
          "name": "complaintId",
          "type": "string"
        },
        {
          "indexed": true,
          "internalType": "address",
          "name": "policeStation",
          "type": "address"
        },
        {
          "indexed": false,
          "internalType": "string",
          "name": "policeSignatureURI",
          "type": "string"
        },
        {
          "indexed": false,
          "internalType": "uint40",
          "name": "timestamp",
          "type": "uint40"
        }
      ],
      "name": "ComplaintAccepted",
      "type": "event"
    },
    {
      "anonymous": false,
      "inputs": [
        {
          "indexed": false,
          "internalType": "string",
          "name": "complaintId",
          "type": "string"
        },
        {
          "indexed": true,
          "internalType": "address",
          "name": "complainant",
          "type": "address"
        },
        {
          "indexed": false,
          "internalType": "string",
          "name": "complaintType",
          "type": "string"
        },
        {
          "indexed": false,
          "internalType": "string",
          "name": "description",
          "type": "string"
        },
        {
          "indexed": false,
          "internalType": "string",
          "name": "severity",
          "type": "string"
        },
        {
          "indexed": false,
          "internalType": "uint40",
          "name": "timestamp",
          "type": "uint40"
        }
      ],
      "name": "ComplaintFiled",
      "type": "event"
    },
    {
      "anonymous": false,
      "inputs": [
        {
          "indexed": false,
          "internalType": "string",
          "name": "complaintId",
          "type": "string"
        },
        {
          "indexed": true,
          "internalType": "address",
          "name": "policeStation",
          "type": "address"
        },
        {
          "indexed": false,
          "internalType": "string",
          "name": "policeSignatureURI",
          "type": "string"
        },
        {
          "indexed": false,
          "internalType": "string",
          "name": "rejectionReason",
          "type": "string"
        },
        {
          "indexed": false,
          "internalType": "uint40",
          "name": "timestamp",
          "type": "uint40"
        }
      ],
      "name": "ComplaintRejected",
      "type": "event"
    },
    {
      "anonymous": false,
      "inputs": [
        {
          "indexed": false,
          "internalType": "string",
          "name": "complaintId",
          "type": "string"
        },
        {
          "indexed": false,
          "internalType": "string[]",
          "name": "proofURIs",
          "type": "string[]"
        }
      ],
      "name": "EvidenceAdded",
      "type": "event"
    },
    {
      "inputs": [
        {
          "internalType": "string",
          "name": "_complaintId",
          "type": "string"
        },
        {
          "internalType": "string",
          "name": "_policeSignatureURI",
          "type": "string"
        }
      ],
      "name": "acceptComplaint",
      "outputs": [],
      "stateMutability": "nonpayable",
      "type": "function"
    },
    {
      "inputs": [
        {
          "internalType": "string",
          "name": "_complaintId",
          "type": "string"
        },
        {
          "internalType": "string[]",
          "name": "_newProofURIs",
          "type": "string[]"
        }
      ],
      "name": "addEvidences",
      "outputs": [],
      "stateMutability": "nonpayable",
      "type": "function"
    },
    {
      "inputs": [
        {
          "internalType": "address",
          "name": "_station",
          "type": "address"
        }
      ],
      "name": "addPoliceStation",
      "outputs": [],
      "stateMutability": "nonpayable",
      "type": "function"
    },
    {
      "inputs": [],
      "name": "complaintCount",
      "outputs": [
        {
          "internalType": "uint32",
          "name": "",
          "type": "uint32"
        }
      ],
      "stateMutability": "view",
      "type": "function"
    },
    {
      "inputs": [
        {
          "internalType": "string",
          "name": "",
          "type": "string"
        }
      ],
      "name": "complaintIds",
      "outputs": [
        {
          "internalType": "uint32",
          "name": "",
          "type": "uint32"
        }
      ],
      "stateMutability": "view",
      "type": "function"
    },
    {
      "inputs": [
        {
          "internalType": "uint32",
          "name": "",
          "type": "uint32"
        }
      ],
      "name": "complaints",
      "outputs": [
        {
          "internalType": "string",
          "name": "complaintId",
          "type": "string"
        },
        {
          "internalType": "address",
          "name": "complainant",
          "type": "address"
        },
        {
          "internalType": "string",
          "name": "complaintType",
          "type": "string"
        },
        {
          "internalType": "string",
          "name": "description",
          "type": "string"
        },
        {
          "internalType": "string",
          "name": "location",
          "type": "string"
        },
        {
          "internalType": "uint64",
          "name": "contactNumber",
          "type": "uint64"
        },
        {
          "internalType": "string",
          "name": "victimSignatureURI",
          "type": "string"
        },
        {
          "internalType": "string",
          "name": "severity",
          "type": "string"
        },
        {
          "internalType": "address",
          "name": "policeStation",
          "type": "address"
        },
        {
          "internalType": "string",
          "name": "policeSignatureURI",
          "type": "string"
        },
        {
          "internalType": "enum FIRSystem.Status",
          "name": "status",
          "type": "uint8"
        },
        {
          "internalType": "string",
          "name": "rejectionReason",
          "type": "string"
        },
        {
          "internalType": "uint40",
          "name": "recordedTimestamp",
          "type": "uint40"
        },
        {
          "internalType": "uint40",
          "name": "lastUpdatedTimestamp",
          "type": "uint40"
        },
        {
          "internalType": "uint40",
          "name": "processedTimestamp",
          "type": "uint40"
        }
      ],
      "stateMutability": "view",
      "type": "function"
    },
    {
      "inputs": [
        {
          "internalType": "string",
          "name": "_complaintType",
          "type": "string"
        },
        {
          "internalType": "string",
          "name": "_description",
          "type": "string"
        },
        {
          "internalType": "string[]",
          "name": "_initialProofURIs",
          "type": "string[]"
        },
        {
          "internalType": "string",
          "name": "_victimSignatureURI",
          "type": "string"
        },
        {
          "internalType": "string",
          "name": "_severity",
          "type": "string"
        },
        {
          "internalType": "string",
          "name": "_location",
          "type": "string"
        },
        {
          "internalType": "uint64",
          "name": "_contactNumber",
          "type": "uint64"
        }
      ],
      "name": "fileComplaint",
      "outputs": [],
      "stateMutability": "nonpayable",
      "type": "function"
    },
    {
      "inputs": [],
      "name": "getAllComplaints",
      "outputs": [
        {
          "components": [
            {
              "internalType": "string",
              "name": "complaintId",
              "type": "string"
            },
            {
              "internalType": "address",
              "name": "complainant",
              "type": "address"
            },
            {
              "internalType": "string",
              "name": "complaintType",
              "type": "string"
            },
            {
              "internalType": "string",
              "name": "description",
              "type": "string"
            },
            {
              "internalType": "string[]",
              "name": "proofURIs",
              "type": "string[]"
            },
            {
              "internalType": "string",
              "name": "location",
              "type": "string"
            },
            {
              "internalType": "uint64",
              "name": "contactNumber",
              "type": "uint64"
            },
            {
              "internalType": "string",
              "name": "victimSignatureURI",
              "type": "string"
            },
            {
              "internalType": "string",
              "name": "severity",
              "type": "string"
            },
            {
              "internalType": "address",
              "name": "policeStation",
              "type": "address"
            },
            {
              "internalType": "string",
              "name": "policeSignatureURI",
              "type": "string"
            },
            {
              "internalType": "enum FIRSystem.Status",
              "name": "status",
              "type": "uint8"
            },
            {
              "internalType": "string",
              "name": "rejectionReason",
              "type": "string"
            },
            {
              "internalType": "uint40",
              "name": "recordedTimestamp",
              "type": "uint40"
            },
            {
              "internalType": "uint40",
              "name": "lastUpdatedTimestamp",
              "type": "uint40"
            },
            {
              "internalType": "uint40",
              "name": "processedTimestamp",
              "type": "uint40"
            }
          ],
          "internalType": "struct FIRSystem.Complaint[]",
          "name": "",
          "type": "tuple[]"
        }
      ],
      "stateMutability": "view",
      "type": "function"
    },
    {
      "inputs": [
        {
          "internalType": "string",
          "name": "_complaintId",
          "type": "string"
        }
      ],
      "name": "getComplaintById",
      "outputs": [
        {
          "components": [
            {
              "internalType": "string",
              "name": "complaintId",
              "type": "string"
            },
            {
              "internalType": "address",
              "name": "complainant",
              "type": "address"
            },
            {
              "internalType": "string",
              "name": "complaintType",
              "type": "string"
            },
            {
              "internalType": "string",
              "name": "description",
              "type": "string"
            },
            {
              "internalType": "string[]",
              "name": "proofURIs",
              "type": "string[]"
            },
            {
              "internalType": "string",
              "name": "location",
              "type": "string"
            },
            {
              "internalType": "uint64",
              "name": "contactNumber",
              "type": "uint64"
            },
            {
              "internalType": "string",
              "name": "victimSignatureURI",
              "type": "string"
            },
            {
              "internalType": "string",
              "name": "severity",
              "type": "string"
            },
            {
              "internalType": "address",
              "name": "policeStation",
              "type": "address"
            },
            {
              "internalType": "string",
              "name": "policeSignatureURI",
              "type": "string"
            },
            {
              "internalType": "enum FIRSystem.Status",
              "name": "status",
              "type": "uint8"
            },
            {
              "internalType": "string",
              "name": "rejectionReason",
              "type": "string"
            },
            {
              "internalType": "uint40",
              "name": "recordedTimestamp",
              "type": "uint40"
            },
            {
              "internalType": "uint40",
              "name": "lastUpdatedTimestamp",
              "type": "uint40"
            },
            {
              "internalType": "uint40",
              "name": "processedTimestamp",
              "type": "uint40"
            }
          ],
          "internalType": "struct FIRSystem.Complaint",
          "name": "",
          "type": "tuple"
        }
      ],
      "stateMutability": "view",
      "type": "function"
    },
    {
      "inputs": [
        {
          "internalType": "address",
          "name": "_station",
          "type": "address"
        }
      ],
      "name": "getComplaintsByPoliceStation",
      "outputs": [
        {
          "components": [
            {
              "internalType": "string",
              "name": "complaintId",
              "type": "string"
            },
            {
              "internalType": "address",
              "name": "complainant",
              "type": "address"
            },
            {
              "internalType": "string",
              "name": "complaintType",
              "type": "string"
            },
            {
              "internalType": "string",
              "name": "description",
              "type": "string"
            },
            {
              "internalType": "string[]",
              "name": "proofURIs",
              "type": "string[]"
            },
            {
              "internalType": "string",
              "name": "location",
              "type": "string"
            },
            {
              "internalType": "uint64",
              "name": "contactNumber",
              "type": "uint64"
            },
            {
              "internalType": "string",
              "name": "victimSignatureURI",
              "type": "string"
            },
            {
              "internalType": "string",
              "name": "severity",
              "type": "string"
            },
            {
              "internalType": "address",
              "name": "policeStation",
              "type": "address"
            },
            {
              "internalType": "string",
              "name": "policeSignatureURI",
              "type": "string"
            },
            {
              "internalType": "enum FIRSystem.Status",
              "name": "status",
              "type": "uint8"
            },
            {
              "internalType": "string",
              "name": "rejectionReason",
              "type": "string"
            },
            {
              "internalType": "uint40",
              "name": "recordedTimestamp",
              "type": "uint40"
            },
            {
              "internalType": "uint40",
              "name": "lastUpdatedTimestamp",
              "type": "uint40"
            },
            {
              "internalType": "uint40",
              "name": "processedTimestamp",
              "type": "uint40"
            }
          ],
          "internalType": "struct FIRSystem.Complaint[]",
          "name": "",
          "type": "tuple[]"
        }
      ],
      "stateMutability": "view",
      "type": "function"
    },
    {
      "inputs": [
        {
          "internalType": "address",
          "name": "_victim",
          "type": "address"
        }
      ],
      "name": "getComplaintsByVictim",
      "outputs": [
        {
          "components": [
            {
              "internalType": "string",
              "name": "complaintId",
              "type": "string"
            },
            {
              "internalType": "address",
              "name": "complainant",
              "type": "address"
            },
            {
              "internalType": "string",
              "name": "complaintType",
              "type": "string"
            },
            {
              "internalType": "string",
              "name": "description",
              "type": "string"
            },
            {
              "internalType": "string[]",
              "name": "proofURIs",
              "type": "string[]"
            },
            {
              "internalType": "string",
              "name": "location",
              "type": "string"
            },
            {
              "internalType": "uint64",
              "name": "contactNumber",
              "type": "uint64"
            },
            {
              "internalType": "string",
              "name": "victimSignatureURI",
              "type": "string"
            },
            {
              "internalType": "string",
              "name": "severity",
              "type": "string"
            },
            {
              "internalType": "address",
              "name": "policeStation",
              "type": "address"
            },
            {
              "internalType": "string",
              "name": "policeSignatureURI",
              "type": "string"
            },
            {
              "internalType": "enum FIRSystem.Status",
              "name": "status",
              "type": "uint8"
            },
            {
              "internalType": "string",
              "name": "rejectionReason",
              "type": "string"
            },
            {
              "internalType": "uint40",
              "name": "recordedTimestamp",
              "type": "uint40"
            },
            {
              "internalType": "uint40",
              "name": "lastUpdatedTimestamp",
              "type": "uint40"
            },
            {
              "internalType": "uint40",
              "name": "processedTimestamp",
              "type": "uint40"
            }
          ],
          "internalType": "struct FIRSystem.Complaint[]",
          "name": "",
          "type": "tuple[]"
        }
      ],
      "stateMutability": "view",
      "type": "function"
    },
    {
      "inputs": [
        {
          "internalType": "address",
          "name": "_station",
          "type": "address"
        }
      ],
      "name": "isPoliceStation",
      "outputs": [
        {
          "internalType": "bool",
          "name": "",
          "type": "bool"
        }
      ],
      "stateMutability": "view",
      "type": "function"
    },
    {
      "inputs": [],
      "name": "owner",
      "outputs": [
        {
          "internalType": "address",
          "name": "",
          "type": "address"
        }
      ],
      "stateMutability": "view",
      "type": "function"
    },
    {
      "inputs": [
        {
          "internalType": "address",
          "name": "",
          "type": "address"
        }
      ],
      "name": "policeStations",
      "outputs": [
        {
          "internalType": "bool",
          "name": "",
          "type": "bool"
        }
      ],
      "stateMutability": "view",
      "type": "function"
    },
    {
      "inputs": [
        {
          "internalType": "string",
          "name": "_complaintId",
          "type": "string"
        },
        {
          "internalType": "string",
          "name": "_rejectionReason",
          "type": "string"
        },
        {
          "internalType": "string",
          "name": "_policeSignatureURI",
          "type": "string"
        }
      ],
      "name": "rejectComplaint",
      "outputs": [],
      "stateMutability": "nonpayable",
      "type": "function"
    },
    {
      "inputs": [
        {
          "internalType": "address",
          "name": "_station",
          "type": "address"
        }
      ],
      "name": "removePolice",
      "outputs": [],
      "stateMutability": "nonpayable",
      "type": "function"
    }
  ],
  "bytecode": "0x60a0806040523461003157336080526128ab9081610037823960805181818161167c015281816117e70152611b700152f35b600080fdfe610120604052600436101561001357600080fd5b60003560e01c80630dac953914611bd35780632edea29414611baf57806331e5ecaa14611b435780636de0fca314611a5c5780637274fd461461160c57806384122989146118c857806386809910146118785780638cb637a1146118165780638da5cb5b146117d1578063914c8496146116be578063978beb341461164f5780639807cbbb1461160c578063b119e9e2146113d4578063b29211d8146111a8578063d19dc1ac1461039a5763e875f006146100cd57600080fd5b34610287576040366003190112610287576001600160401b03600435818111610287576100fe903690600401611ec5565b909160249182358281116102875761011a9036906004016120a5565b909461015283604051948593843782016002815263ffffffff928391602096879103019020541691821515908161038b575b506122f0565b60005260019182815260406000209460018060a01b038487015416330361033e5760ff600b8701541660038110156103295761019390959493929515612333565b600486019060005b83811061028c57505050600d8501805469ffffffffff000000000019164260281b64ffffffffff60281b161790556101de6040519560408752604087019061200f565b938585038187015281855280850196818360051b8701019781956000925b85841061022b577f22da5258472cd73d7f31b0a49270ff7b59b69ff9d012cc5b29b6a141df4d43b68a8c038ba1005b909192939495969799601f198b82030184528835601e198336030181121561028757820186810191903584811161028757803603831361028757610273889283928c9561219b565b9c9a019897969591909101930191906101fc565b600080fd5b80600597949596971b890135601e198a3603018112156102875789018035908882116102875785018136038113610287578454600160401b811015610314578881018087558110156102ff57916102f0916102f5949387600052886000200161237f565b61221c565b959493929561019b565b84634e487b7160e01b60005260326004526000fd5b84634e487b7160e01b60005260416004526000fd5b50634e487b7160e01b60009081526021600452fd5b9060216084926040519262461bcd60e51b845260048401528201527f4f6e6c7920636f6d706c61696e616e742063616e206164642065766964656e636044820152606560f81b6064820152fd5b9050600054168211153861014c565b346102875760e0366003190112610287576004356001600160401b038111610287576103ca903690600401611ec5565b6024356001600160401b038111610287576103e9903690600401611ec5565b906044356001600160401b038111610287576104099036906004016120a5565b9290916064356001600160401b0381116102875761042b903690600401611ec5565b9290966084356001600160401b0381116102875761044d903690600401611ec5565b94906101005260a4356001600160401b03811161028757610472903690600401611ec5565b99909160c4356001600160401b0381168103610287576000549363ffffffff61049c818716612111565b16809563ffffffff1916176000556104b343612252565b60e0526104d46104cf6104c46121bc565b5160e05151906121dd565b6121ea565b60a052600060c0525b6104e56121bc565b5160c05190811015610533576001600160f81b03199061050c906105076121bc565b61222b565b511660001a61051f60c05160a05161222b565b5361052b60c05161221c565b60c0526104dd565b508c60005b60e0518051821015610581579061057c916105588260ff60f81b9261222b565b51166105766105698360c0516121dd565b9160001a9160a05161222b565b5361221c565b610538565b50508b8d9b6040516020818161059f60a05183815193849201611c84565b810160028152030190208863ffffffff198254161790556105c560405180608052611ef2565b60a0516080515233602060805101526105e08d36908b611f80565b604060805101526105f2368b8d611f80565b6060608051015261060282612126565b916106106040519384611f44565b8083526020830191368260051b8201116102875780925b8260051b8201841061117c57505050506001600160401b039261066e96959492610658926080805101523691611f80565b60a060805101521660c060805101523691611f80565b60e06080510152610683368661010051611f80565b6101006080510152600061012060805101526040516106a181611f0e565b600081526101406080510152600061016060805101526040516106c381611f0e565b60008152610180608051015264ffffffffff42166101a0608051015264ffffffffff42166101c0608051015260006101e0608051015260005260016020526040600020608051518051906001600160401b038211610c905781906107318261072b8654611fd5565b86612154565b602090601f831160011461111057600092611105575b50508160011b916000199060031b1c19161781555b60805160208101516001830180546001600160a01b0319166001600160a01b0392909216919091179055604001518051906001600160401b038211610c905781906107b7826107ae6002870154611fd5565b60028701612154565b602090601f831160011461109357600092611088575b50508160011b916000199060031b1c19161760028201555b606060805101518051906001600160401b038211610c90578190610819826108106003870154611fd5565b60038701612154565b602090601f83116001146110165760009261100b575b50508160011b916000199060031b1c19161760038201555b608080510151805190600160401b8211610c90576004830154826004850155808310610f93575b5060200190600483016000526020600020916000905b828210610eb0575050505060a060805101518051906001600160401b038211610c905781906108c3826108ba6005870154611fd5565b60058701612154565b602090601f8311600114610e3e57600092610e33575b50508160011b916000199060031b1c19161760058201555b60e060068201608051906001600160401b0360c0830151166001600160401b031982541617905501518051906001600160401b038211610c905781906109478261093e6007870154611fd5565b60078701612154565b602090601f8311600114610dc157600092610db6575b50508160011b916000199060031b1c19161760078201555b61010060805101518051906001600160401b038211610c905781906109aa826109a16008870154611fd5565b60088701612154565b602090601f8311600114610d4457600092610d39575b50508160011b916000199060031b1c19161760088201555b6080516101208101516009830180546001600160a01b0319166001600160a01b039290921691909117905561014001518051906001600160401b038211610c90578190610a3582610a2c600a870154611fd5565b600a8701612154565b602090601f8311600114610cc757600092610cbc575b50508160011b916000199060031b1c191617600a8201555b600b8101608051610160810151916003831015610ca6576101809260ff8019835416911617905501518051906001600160401b038211610c9057610ab782610aae600c860154611fd5565b600c8601612154565b602090601f8311600114610bec5793610b86600d610bcb9895857f282f1357275707c5adcfabec6dc0ba002015519ec1e9311915110be7a5e9107b9b9996610bab96610bb99a600092610be1575b50508160011b916000199060031b1c191617600c8201555b6080516101a08101519290910180546101c083015169ffffffffffffffffffff1990911664ffffffffff9485161760289190911b64ffffffffff60281b1617815591906101e00151825464ffffffffff60501b1916911660501b64ffffffffff60501b16179055565b6040519860a08a52610b9d60a08b0160a051611ca7565b918a830360208c015261219b565b91878303604089015261219b565b9084820360608601526101005161219b565b9164ffffffffff421660808201528033930390a2005b015190508e80610b05565b90600c840160005260206000209160005b601f1985168110610c785750600d610bcb9895600186610bab96610bb99a96610b86967f282f1357275707c5adcfabec6dc0ba002015519ec1e9311915110be7a5e9107b9f9d9a601f19811610610c5f575b505050811b01600c820155610b1d565b015160001960f88460031b161c191690558e8080610c4f565b91926020600181928685015181550194019201610bfd565b634e487b7160e01b600052604160045260246000fd5b634e487b7160e01b600052602160045260246000fd5b015190508880610a4b565b9250600a84016000526020600020906000935b601f1984168510610d1e576001945083601f19811610610d05575b505050811b01600a820155610a63565b015160001960f88460031b161c19169055888080610cf5565b81810151835560209485019460019093019290910190610cda565b0151905088806109c0565b9250600884016000526020600020906000935b601f1984168510610d9b576001945083601f19811610610d82575b505050811b0160088201556109d8565b015160001960f88460031b161c19169055888080610d72565b81810151835560209485019460019093019290910190610d57565b01519050888061095d565b9250600784016000526020600020906000935b601f1984168510610e18576001945083601f19811610610dff575b505050811b016007820155610975565b015160001960f88460031b161c19169055888080610def565b81810151835560209485019460019093019290910190610dd4565b0151905088806108d9565b9250600584016000526020600020906000935b601f1984168510610e95576001945083601f19811610610e7c575b505050811b0160058201556108f1565b015160001960f88460031b161c19169055888080610e6c565b81810151835560209485019460019093019290910190610e51565b80518051906001600160401b038211610c9057610ed782610ed18854611fd5565b88612154565b602090601f8311600114610f23579282600194936020938695600092610f18575b5050600019600383901b1c191690841b1787555b01940191019092610884565b015190508f80610ef8565b908660005260206000209160005b601f1985168110610f7b575083602093600196938796938794601f19811610610f62575b505050811b018755610f0c565b015160001960f88460031b161c191690558f8080610f55565b91926020600181928685015181550194019201610f31565b600484016000526020600020908382015b8183018110610fb457505061086e565b80610fc160019254611fd5565b80610fce575b5001610fa4565b601f81118314610fe45750600081555b8c610fc7565b600090828252611002601f60208420920160051c820185830161213d565b81835555610fde565b01519050888061082f565b9250600384016000526020600020906000935b601f198416851061106d576001945083601f19811610611054575b505050811b016003820155610847565b015160001960f88460031b161c19169055888080611044565b81810151835560209485019460019093019290910190611029565b0151905088806107cd565b9250600284016000526020600020906000935b601f19841685106110ea576001945083601f198116106110d1575b505050811b0160028201556107e5565b015160001960f88460031b161c191690558880806110c1565b818101518355602094850194600190930192909101906110a6565b015190508880610747565b9250836000526020600020906000935b601f1984168510611161576001945083601f19811610611148575b505050811b01815561075c565b015160001960f88460031b161c1916905588808061113b565b81810151835560209485019460019093019290910190611120565b83356001600160401b0381116102875760209161119d839236908601611fb7565b815201930192610627565b346102875760203660031901126102875760043563ffffffff81168091036102875760005260016020526040600020604051806111e5818461200f565b036111f09082611f44565b60018201546040516001600160a01b0391821693909182611214816002850161200f565b0361121f9084611f44565b6040519081611231816003860161200f565b0361123c9083611f44565b604051908161124e816005870161200f565b036112599083611f44565b60068401546001600160401b0316906040518080600788019061127b9161200f565b036112869082611f44565b60405191826112988160088a0161200f565b036112a39084611f44565b60098701541692604051948580600a8a01906112be9161200f565b036112c99087611f44565b600b88015460ff1696604051988980600c8301906112e69161200f565b036112f1908b611f44565b600d015499604051809d819d6101e0808452830161130e91611ca7565b91602001528c808203906040015261132591611ca7565b8b810360608d015261133691611ca7565b8a810360808c015261134791611ca7565b9060a08a015288810360c08a015261135e91611ca7565b87810360e089015261136f91611ca7565b9061010087015285810361012087015261138891611ca7565b90610140850161139791611ccc565b8381036101608501526113a991611ca7565b9064ffffffffff90818116610180850152818160281c166101a085015260501c166101c08301520390f35b34610287576060366003190112610287576001600160401b0360043581811161028757611405903690600401611ec5565b91906024358281116102875761141f903690600401611ec5565b90916044359384116102875761143c611487943690600401611ec5565b94909533600052600360205261145960ff60406000205416612442565b8060405193843782016002815282602063ffffffff9485930301902054169182151590816115fd57506122f0565b81156115b8576000526001602052604060002091600b83019182549560ff8716906003821015610ca6577f7429fcac46394c597a89d213e63465d400237a00ce84d658015c8f72a6bc0989966115aa956114e461159c9415612333565b600264ffffffffff42169a60098a01336bffffffffffffffffffffffff60a01b82541617905560ff191617905561151f8183600a8a0161237f565b61152d8486600c8a0161237f565b600d8701805464ffffffffff60501b191660508b901b64ffffffffff60501b16178155611579908a905b9064ffffffffff60281b82549160281b169064ffffffffff60281b1916179055565b61158e6040519760808952608089019061200f565b91878303602089015261219b565b91848303604086015261219b565b9260608201528033930390a2005b60405162461bcd60e51b815260206004820152601d60248201527f4d7573742070726f766964652072656a656374696f6e20726561736f6e0000006044820152606490fd5b9050600054168211158761014c565b34610287576020366003190112610287576004356001600160a01b03811690819003610287576000526003602052602060ff604060002054166040519015158152f35b34610287576020366003190112610287576004356001600160a01b0381811691829003610287576116a3907f00000000000000000000000000000000000000000000000000000000000000001633146120d5565b6000908152600360205260409020805460ff19166001179055005b3461028757602080600319360112610287576001600160a01b03600435818116908190036102875763ffffffff9081600054169260009260015b81811686811161173e576000526001875283836009604060002001541614611729575b61172490612111565b6116f8565b9361173661172491612111565b94905061171b565b505090928161174d9116612811565b9060009260015b8281168781116117bf57600052600188526040600020828760098301541614611787575b5061178290612111565b611754565b94906117b882856117a461179e6117829693612111565b99612505565b9116906117b18289612861565b5286612861565b5090611778565b604051806117cd8782611e63565b0390f35b34610287576000366003190112610287576040517f00000000000000000000000000000000000000000000000000000000000000006001600160a01b03168152602090f35b34610287576020366003190112610287576004356001600160401b0381116102875763ffffffff611864602061185181943690600401611fb7565b8160405193828580945193849201611c84565b810160028152030190205416604051908152f35b34610287576020366003190112610287576004356001600160401b038111610287576118b46118ae6117cd923690600401611ec5565b906126b4565b604051918291602083526020830190611cd9565b34610287576040366003190112610287576001600160401b03600435818111610287576118f9903690600401611ec5565b919060243591821161028757611916611961923690600401611ec5565b92909333600052600360205261193360ff60406000205416612442565b8060405193843782016002815282602063ffffffff948593030190205416918215159081611a4d57506122f0565b60005260016020526040600020600b81019182549360ff8516916003831015610ca6577ff141f3af106f8cf8a9fcf5b4a2389055cd0e8cf2c413cbb21c0d180e43d92d36946119b3611a3f9415612333565b600164ffffffffff42169760098701336bffffffffffffffffffffffff60a01b82541617905560ff19161790556119ee8183600a870161237f565b600d8401805464ffffffffff60501b1916605088901b64ffffffffff60501b16178155611a1c908790611557565b611a316040519460608652606086019061200f565b91848303602086015261219b565b9260408201528033930390a2005b9050600054168211158561014c565b3461028757602080600319360112610287576001600160a01b03600435818116908190036102875763ffffffff9081600054169260009260015b818116868111611adc576000526001875283836001604060002001541614611ac7575b611ac290612111565b611a96565b93611ad4611ac291612111565b949050611ab9565b5050909281611aeb9116612811565b9060009260015b8281168781116117bf57600052600188526040600020828760018301541614611b25575b50611b2090612111565b611af2565b9490611b3c82856117a461179e611b209693612111565b5090611b16565b34610287576020366003190112610287576004356001600160a01b038181169182900361028757611b97907f00000000000000000000000000000000000000000000000000000000000000001633146120d5565b6000908152600360205260409020805460ff19169055005b3461028757600036600319011261028757602063ffffffff60005416604051908152f35b346102875760003660031901126102875763ffffffff8060005416611bf781612811565b9060019081805b611c11575b604051806117cd8682611e63565b84811690828211611c7e5781600052836020526040600020916000190190868211611c6857611c5c611c629288611c488896612505565b911690611c55828a612861565b5287612861565b50612111565b90611bfe565b634e487b7160e01b600052601160045260246000fd5b50611c03565b60005b838110611c975750506000910152565b8181015183820152602001611c87565b90602091611cc081518092818552858086019101611c84565b601f01601f1916010190565b906003821015610ca65752565b90611ced8251610200808452830190611ca7565b60018060a01b0390611d2c611d1a6020928484880151168487015260408701518682036040880152611ca7565b60608601518582036060870152611ca7565b60808501519184820360808601528251908183528083019281808460051b8301019501936000915b848310611e3557505050505050611e0691611dbd611da9611d84611ddf9460a089015188820360a08a0152611ca7565b6001600160401b0360c08901511660c088015260e088015187820360e0890152611ca7565b610100808801519087830390880152611ca7565b9061012090818701511690850152610140808601519085830390860152611ca7565b611df26101608086015190850190611ccc565b610180808501519084830390850152611ca7565b9164ffffffffff6101a0818184015116908401526101c0818184015116908401526101e0809201511691015290565b9091929394958480611e53600193601f198682030187528a51611ca7565b9801930193019194939290611d54565b602080820190808352835180925260408301928160408460051b8301019501936000915b848310611e975750505050505090565b9091929394958480611eb5600193603f198682030187528a51611cd9565b9801930193019194939290611e87565b9181601f84011215610287578235916001600160401b038311610287576020838186019501011161028757565b61020081019081106001600160401b03821117610c9057604052565b602081019081106001600160401b03821117610c9057604052565b604081019081106001600160401b03821117610c9057604052565b90601f801991011681019081106001600160401b03821117610c9057604052565b6001600160401b038111610c9057601f01601f191660200190565b929192611f8c82611f65565b91611f9a6040519384611f44565b829481845281830111610287578281602093846000960137010152565b9080601f8301121561028757816020611fd293359101611f80565b90565b90600182811c92168015612005575b6020831014611fef57565b634e487b7160e01b600052602260045260246000fd5b91607f1691611fe4565b906000929180549161202083611fd5565b9182825260019384811690816000146120825750600114612042575b50505050565b90919394506000526020928360002092846000945b83861061206e57505050500101903880808061203c565b805485870183015294019385908201612057565b9294505050602093945060ff191683830152151560051b0101903880808061203c565b9181601f84011215610287578235916001600160401b038311610287576020808501948460051b01011161028757565b156120dc57565b60405162461bcd60e51b815260206004820152600d60248201526c2737ba103a34329037bbb732b960991b6044820152606490fd5b63ffffffff809116908114611c685760010190565b6001600160401b038111610c905760051b60200190565b818110612148575050565b6000815560010161213d565b9190601f811161216357505050565b61218f926000526020600020906020601f840160051c83019310612191575b601f0160051c019061213d565b565b9091508190612182565b908060209392818452848401376000828201840152601f01601f1916010190565b604051906121c982611f29565b6005825264434f4d502d60d81b6020830152565b91908201809211611c6857565b906121f482611f65565b6122016040519182611f44565b8281528092612212601f1991611f65565b0190602036910137565b6000198114611c685760010190565b90815181101561223c570160200190565b634e487b7160e01b600052603260045260246000fd5b80156122d25780600081805b6122ba575061226c816121ea565b925b61227757505090565b6000198101908111611c68578091600a9160308383068101809111611c685760f81b6001600160f81b03191660001a906122b1908661222b565b5304908161226e565b91506122c7600a9161221c565b91048083929161225e565b506040516122df81611f29565b60018152600360fc1b602082015290565b156122f757565b60405162461bcd60e51b8152602060048201526014602482015273125b9d985b1a590818dbdb5c1b185a5b9d08125160621b6044820152606490fd5b1561233a57565b60405162461bcd60e51b815260206004820152601b60248201527f436f6d706c61696e7420616c72656164792070726f63657373656400000000006044820152606490fd5b9092916001600160401b038111610c90576123a48161239e8454611fd5565b84612154565b6000601f82116001146123de57819293946000926123d3575b50508160011b916000199060031b1c1916179055565b0135905038806123bd565b601f198216948382526020918281209281905b88821061242a57505083600195969710612410575b505050811b019055565b0135600019600384901b60f8161c19169055388080612406565b806001849682949587013581550195019201906123f1565b1561244957565b60405162461bcd60e51b815260206004820152601f60248201527f4e6f742061207265676973746572656420706f6c6963652073746174696f6e006044820152606490fd5b6040519061249b82611ef2565b816101e060609182815260009283602083015280604083015280808301528060808301528060a08301528360c08301528060e083015280610100830152836101208301528061014083015283610160830152610180820152826101a0820152826101c08201520152565b90604080519061251482611ef2565b8193815161252d81612526818561200f565b0382611f44565b835260018060a01b0360018181840154169060209182870152845161255981612526816002890161200f565b85870152845161257081612526816003890161200f565b60608701526004840180549061258582612126565b9361259288519586611f44565b82855260009182528082208186015b84841061269257505050505050608085015282516125c681612526816005870161200f565b60a08501526001600160401b0360068301541660c085015282516125f181612526816007870161200f565b60e0850152825161260981612526816008870161200f565b610100850152600982015416610120840152815161262e8161252681600a860161200f565b61014084015260ff600b82015416906003821015610ca6576101e092600d92610160860152516126658161252681600c860161200f565b610180850152015464ffffffffff908181166101a0850152818160281c166101c085015260501c16910152565b858381928c516126a681612526818961200f565b8152019201930192906125a1565b6126bc61248e565b506000805463ffffffff9390841660015b8581168281116127d657808552602060018152604091828720835183810191818a8254926126fa84611fd5565b93886001821691826000146127b957505060011461277d575b50612727925003601f198101835282611f44565b519020835183810190888b833761274c85828b81018d83820152038084520182611f44565b519020146127655750505061276090612111565b6126cd565b925092509450611fd295506001925083525220612505565b9150508a528185808c208c905b8482106127a05750506127279282010138612713565b600191935080548385880101520191018690849261278a565b60ff19168852612727958015150285010192503891506127139050565b60405162461bcd60e51b815260206004820152601360248201527210dbdb5c1b185a5b9d081b9bdd08199bdd5b99606a1b6044820152606490fd5b9061281b82612126565b6128286040519182611f44565b8281528092612839601f1991612126565b019060005b82811061284a57505050565b60209061285561248e565b8282850101520161283e565b805182101561223c5760209160051b01019056fea264697066735822122072005670589114ec3063cca0097ce28eebcea2cac075811ce69140b7b273a06464736f6c63430008120033",
  "linkReferences": {},
  "deployedLinkReferences": {}
}