{
  "_format": "hh-sol-artifact-1",
  "contractName": "FIRSystem",
  "sourceName": "contracts/FIR.sol",
  "abi": [
    {
      "inputs": [],
      "stateMutability": "nonpayable",
      "type": "constructor"
    },
    {
      "anonymous": false,
      "inputs": [
        {
          "indexed": false,
          "internalType": "string",
          "name": "complaintId",
          "type": "string"
        },
        {
          "indexed": true,
          "internalType": "address",
          "name": "policeStation",
          "type": "address"
        },
        {
          "indexed": false,
          "internalType": "string",
          "name": "policeSignatureURI",
          "type": "string"
        },
        {
          "indexed": false,
          "internalType": "uint40",
          "name": "timestamp",
          "type": "uint40"
        }
      ],
      "name": "ComplaintAccepted",
      "type": "event"
    },
    {
      "anonymous": false,
      "inputs": [
        {
          "indexed": false,
          "internalType": "string",
          "name": "complaintId",
          "type": "string"
        },
        {
          "indexed": true,
          "internalType": "address",
          "name": "escalatedBy",
          "type": "address"
        },
        {
          "indexed": false,
          "internalType": "uint40",
          "name": "timestamp",
          "type": "uint40"
        }
      ],
      "name": "ComplaintEscalated",
      "type": "event"
    },
    {
      "anonymous": false,
      "inputs": [
        {
          "indexed": false,
          "internalType": "string",
          "name": "complaintId",
          "type": "string"
        },
        {
          "indexed": true,
          "internalType": "address",
          "name": "complainant",
          "type": "address"
        },
        {
          "indexed": false,
          "internalType": "string",
          "name": "complaintType",
          "type": "string"
        },
        {
          "indexed": false,
          "internalType": "string",
          "name": "description",
          "type": "string"
        },
        {
          "indexed": false,
          "internalType": "string",
          "name": "severity",
          "type": "string"
        },
        {
          "indexed": false,
          "internalType": "uint40",
          "name": "timestamp",
          "type": "uint40"
        }
      ],
      "name": "ComplaintFiled",
      "type": "event"
    },
    {
      "anonymous": false,
      "inputs": [
        {
          "indexed": false,
          "internalType": "string",
          "name": "complaintId",
          "type": "string"
        },
        {
          "indexed": true,
          "internalType": "address",
          "name": "policeStation",
          "type": "address"
        },
        {
          "indexed": false,
          "internalType": "string",
          "name": "rejectionReason",
          "type": "string"
        },
        {
          "indexed": false,
          "internalType": "uint40",
          "name": "timestamp",
          "type": "uint40"
        }
      ],
      "name": "ComplaintRejected",
      "type": "event"
    },
    {
      "anonymous": false,
      "inputs": [
        {
          "indexed": false,
          "internalType": "string",
          "name": "complaintId",
          "type": "string"
        },
        {
          "indexed": false,
          "internalType": "string[]",
          "name": "proofURIs",
          "type": "string[]"
        }
      ],
      "name": "EvidenceAdded",
      "type": "event"
    },
    {
      "inputs": [
        {
          "internalType": "string",
          "name": "_complaintId",
          "type": "string"
        },
        {
          "internalType": "string",
          "name": "_policeSignatureURI",
          "type": "string"
        }
      ],
      "name": "acceptComplaint",
      "outputs": [],
      "stateMutability": "nonpayable",
      "type": "function"
    },
    {
      "inputs": [
        {
          "internalType": "string",
          "name": "_complaintId",
          "type": "string"
        },
        {
          "internalType": "string[]",
          "name": "_newProofURIs",
          "type": "string[]"
        }
      ],
      "name": "addEvidences",
      "outputs": [],
      "stateMutability": "nonpayable",
      "type": "function"
    },
    {
      "inputs": [
        {
          "internalType": "address",
          "name": "_station",
          "type": "address"
        }
      ],
      "name": "addPoliceStation",
      "outputs": [],
      "stateMutability": "nonpayable",
      "type": "function"
    },
    {
      "inputs": [],
      "name": "complaintCount",
      "outputs": [
        {
          "internalType": "uint32",
          "name": "",
          "type": "uint32"
        }
      ],
      "stateMutability": "view",
      "type": "function"
    },
    {
      "inputs": [
        {
          "internalType": "string",
          "name": "",
          "type": "string"
        }
      ],
      "name": "complaintIds",
      "outputs": [
        {
          "internalType": "uint32",
          "name": "",
          "type": "uint32"
        }
      ],
      "stateMutability": "view",
      "type": "function"
    },
    {
      "inputs": [
        {
          "internalType": "uint32",
          "name": "",
          "type": "uint32"
        }
      ],
      "name": "complaints",
      "outputs": [
        {
          "internalType": "string",
          "name": "complaintId",
          "type": "string"
        },
        {
          "internalType": "address",
          "name": "complainant",
          "type": "address"
        },
        {
          "internalType": "string",
          "name": "complaintType",
          "type": "string"
        },
        {
          "internalType": "string",
          "name": "description",
          "type": "string"
        },
        {
          "internalType": "string",
          "name": "location",
          "type": "string"
        },
        {
          "internalType": "uint64",
          "name": "contactNumber",
          "type": "uint64"
        },
        {
          "internalType": "string",
          "name": "victimSignatureURI",
          "type": "string"
        },
        {
          "internalType": "string",
          "name": "severity",
          "type": "string"
        },
        {
          "internalType": "address",
          "name": "policeStation",
          "type": "address"
        },
        {
          "internalType": "string",
          "name": "policeSignatureURI",
          "type": "string"
        },
        {
          "internalType": "enum FIRSystem.Status",
          "name": "status",
          "type": "uint8"
        },
        {
          "internalType": "string",
          "name": "rejectionReason",
          "type": "string"
        },
        {
          "internalType": "uint40",
          "name": "recordedTimestamp",
          "type": "uint40"
        },
        {
          "internalType": "uint40",
          "name": "lastUpdatedTimestamp",
          "type": "uint40"
        },
        {
          "internalType": "uint40",
          "name": "processedTimestamp",
          "type": "uint40"
        }
      ],
      "stateMutability": "view",
      "type": "function"
    },
    {
      "inputs": [
        {
          "internalType": "string",
          "name": "_complaintId",
          "type": "string"
        }
      ],
      "name": "escalateComplaint",
      "outputs": [],
      "stateMutability": "nonpayable",
      "type": "function"
    },
    {
      "inputs": [
        {
          "internalType": "string",
          "name": "_complaintType",
          "type": "string"
        },
        {
          "internalType": "string",
          "name": "_description",
          "type": "string"
        },
        {
          "internalType": "string[]",
          "name": "_initialProofURIs",
          "type": "string[]"
        },
        {
          "internalType": "string",
          "name": "_victimSignatureURI",
          "type": "string"
        },
        {
          "internalType": "string",
          "name": "_severity",
          "type": "string"
        },
        {
          "internalType": "string",
          "name": "_location",
          "type": "string"
        },
        {
          "internalType": "uint64",
          "name": "_contactNumber",
          "type": "uint64"
        }
      ],
      "name": "fileComplaint",
      "outputs": [],
      "stateMutability": "nonpayable",
      "type": "function"
    },
    {
      "inputs": [],
      "name": "getAllComplaints",
      "outputs": [
        {
          "components": [
            {
              "internalType": "string",
              "name": "complaintId",
              "type": "string"
            },
            {
              "internalType": "address",
              "name": "complainant",
              "type": "address"
            },
            {
              "internalType": "string",
              "name": "complaintType",
              "type": "string"
            },
            {
              "internalType": "string",
              "name": "description",
              "type": "string"
            },
            {
              "internalType": "string[]",
              "name": "proofURIs",
              "type": "string[]"
            },
            {
              "internalType": "string",
              "name": "location",
              "type": "string"
            },
            {
              "internalType": "uint64",
              "name": "contactNumber",
              "type": "uint64"
            },
            {
              "internalType": "string",
              "name": "victimSignatureURI",
              "type": "string"
            },
            {
              "internalType": "string",
              "name": "severity",
              "type": "string"
            },
            {
              "internalType": "address",
              "name": "policeStation",
              "type": "address"
            },
            {
              "internalType": "string",
              "name": "policeSignatureURI",
              "type": "string"
            },
            {
              "internalType": "enum FIRSystem.Status",
              "name": "status",
              "type": "uint8"
            },
            {
              "internalType": "string",
              "name": "rejectionReason",
              "type": "string"
            },
            {
              "internalType": "uint40",
              "name": "recordedTimestamp",
              "type": "uint40"
            },
            {
              "internalType": "uint40",
              "name": "lastUpdatedTimestamp",
              "type": "uint40"
            },
            {
              "internalType": "uint40",
              "name": "processedTimestamp",
              "type": "uint40"
            }
          ],
          "internalType": "struct FIRSystem.Complaint[]",
          "name": "",
          "type": "tuple[]"
        }
      ],
      "stateMutability": "view",
      "type": "function"
    },
    {
      "inputs": [
        {
          "internalType": "string",
          "name": "_complaintId",
          "type": "string"
        }
      ],
      "name": "getComplaintById",
      "outputs": [
        {
          "components": [
            {
              "internalType": "string",
              "name": "complaintId",
              "type": "string"
            },
            {
              "internalType": "address",
              "name": "complainant",
              "type": "address"
            },
            {
              "internalType": "string",
              "name": "complaintType",
              "type": "string"
            },
            {
              "internalType": "string",
              "name": "description",
              "type": "string"
            },
            {
              "internalType": "string[]",
              "name": "proofURIs",
              "type": "string[]"
            },
            {
              "internalType": "string",
              "name": "location",
              "type": "string"
            },
            {
              "internalType": "uint64",
              "name": "contactNumber",
              "type": "uint64"
            },
            {
              "internalType": "string",
              "name": "victimSignatureURI",
              "type": "string"
            },
            {
              "internalType": "string",
              "name": "severity",
              "type": "string"
            },
            {
              "internalType": "address",
              "name": "policeStation",
              "type": "address"
            },
            {
              "internalType": "string",
              "name": "policeSignatureURI",
              "type": "string"
            },
            {
              "internalType": "enum FIRSystem.Status",
              "name": "status",
              "type": "uint8"
            },
            {
              "internalType": "string",
              "name": "rejectionReason",
              "type": "string"
            },
            {
              "internalType": "uint40",
              "name": "recordedTimestamp",
              "type": "uint40"
            },
            {
              "internalType": "uint40",
              "name": "lastUpdatedTimestamp",
              "type": "uint40"
            },
            {
              "internalType": "uint40",
              "name": "processedTimestamp",
              "type": "uint40"
            }
          ],
          "internalType": "struct FIRSystem.Complaint",
          "name": "",
          "type": "tuple"
        }
      ],
      "stateMutability": "view",
      "type": "function"
    },
    {
      "inputs": [
        {
          "internalType": "address",
          "name": "_station",
          "type": "address"
        }
      ],
      "name": "getComplaintsByPoliceStation",
      "outputs": [
        {
          "components": [
            {
              "internalType": "string",
              "name": "complaintId",
              "type": "string"
            },
            {
              "internalType": "address",
              "name": "complainant",
              "type": "address"
            },
            {
              "internalType": "string",
              "name": "complaintType",
              "type": "string"
            },
            {
              "internalType": "string",
              "name": "description",
              "type": "string"
            },
            {
              "internalType": "string[]",
              "name": "proofURIs",
              "type": "string[]"
            },
            {
              "internalType": "string",
              "name": "location",
              "type": "string"
            },
            {
              "internalType": "uint64",
              "name": "contactNumber",
              "type": "uint64"
            },
            {
              "internalType": "string",
              "name": "victimSignatureURI",
              "type": "string"
            },
            {
              "internalType": "string",
              "name": "severity",
              "type": "string"
            },
            {
              "internalType": "address",
              "name": "policeStation",
              "type": "address"
            },
            {
              "internalType": "string",
              "name": "policeSignatureURI",
              "type": "string"
            },
            {
              "internalType": "enum FIRSystem.Status",
              "name": "status",
              "type": "uint8"
            },
            {
              "internalType": "string",
              "name": "rejectionReason",
              "type": "string"
            },
            {
              "internalType": "uint40",
              "name": "recordedTimestamp",
              "type": "uint40"
            },
            {
              "internalType": "uint40",
              "name": "lastUpdatedTimestamp",
              "type": "uint40"
            },
            {
              "internalType": "uint40",
              "name": "processedTimestamp",
              "type": "uint40"
            }
          ],
          "internalType": "struct FIRSystem.Complaint[]",
          "name": "",
          "type": "tuple[]"
        }
      ],
      "stateMutability": "view",
      "type": "function"
    },
    {
      "inputs": [
        {
          "internalType": "address",
          "name": "_victim",
          "type": "address"
        }
      ],
      "name": "getComplaintsByVictim",
      "outputs": [
        {
          "components": [
            {
              "internalType": "string",
              "name": "complaintId",
              "type": "string"
            },
            {
              "internalType": "address",
              "name": "complainant",
              "type": "address"
            },
            {
              "internalType": "string",
              "name": "complaintType",
              "type": "string"
            },
            {
              "internalType": "string",
              "name": "description",
              "type": "string"
            },
            {
              "internalType": "string[]",
              "name": "proofURIs",
              "type": "string[]"
            },
            {
              "internalType": "string",
              "name": "location",
              "type": "string"
            },
            {
              "internalType": "uint64",
              "name": "contactNumber",
              "type": "uint64"
            },
            {
              "internalType": "string",
              "name": "victimSignatureURI",
              "type": "string"
            },
            {
              "internalType": "string",
              "name": "severity",
              "type": "string"
            },
            {
              "internalType": "address",
              "name": "policeStation",
              "type": "address"
            },
            {
              "internalType": "string",
              "name": "policeSignatureURI",
              "type": "string"
            },
            {
              "internalType": "enum FIRSystem.Status",
              "name": "status",
              "type": "uint8"
            },
            {
              "internalType": "string",
              "name": "rejectionReason",
              "type": "string"
            },
            {
              "internalType": "uint40",
              "name": "recordedTimestamp",
              "type": "uint40"
            },
            {
              "internalType": "uint40",
              "name": "lastUpdatedTimestamp",
              "type": "uint40"
            },
            {
              "internalType": "uint40",
              "name": "processedTimestamp",
              "type": "uint40"
            }
          ],
          "internalType": "struct FIRSystem.Complaint[]",
          "name": "",
          "type": "tuple[]"
        }
      ],
      "stateMutability": "view",
      "type": "function"
    },
    {
      "inputs": [
        {
          "internalType": "address",
          "name": "_station",
          "type": "address"
        }
      ],
      "name": "isPoliceStation",
      "outputs": [
        {
          "internalType": "bool",
          "name": "",
          "type": "bool"
        }
      ],
      "stateMutability": "view",
      "type": "function"
    },
    {
      "inputs": [],
      "name": "owner",
      "outputs": [
        {
          "internalType": "address",
          "name": "",
          "type": "address"
        }
      ],
      "stateMutability": "view",
      "type": "function"
    },
    {
      "inputs": [
        {
          "internalType": "address",
          "name": "",
          "type": "address"
        }
      ],
      "name": "policeStations",
      "outputs": [
        {
          "internalType": "bool",
          "name": "",
          "type": "bool"
        }
      ],
      "stateMutability": "view",
      "type": "function"
    },
    {
      "inputs": [
        {
          "internalType": "string",
          "name": "_complaintId",
          "type": "string"
        },
        {
          "internalType": "string",
          "name": "_rejectionReason",
          "type": "string"
        }
      ],
      "name": "rejectComplaint",
      "outputs": [],
      "stateMutability": "nonpayable",
      "type": "function"
    },
    {
      "inputs": [
        {
          "internalType": "address",
          "name": "_station",
          "type": "address"
        }
      ],
      "name": "removePolice",
      "outputs": [],
      "stateMutability": "nonpayable",
      "type": "function"
    }
  ],
  "bytecode": "0x60a080604052346100315733608052612913908161003782396080518181816115c40152818161172f0152611a6a0152f35b600080fdfe610120604052600436101561001357600080fd5b60003560e01c80630dac953914611bb957806311ae363614611acd5780632edea29414611aa957806331e5ecaa14611a3d5780636de0fca3146119565780637274fd4614611554578063841229891461181057806386809910146117c05780638cb637a11461175e5780638da5cb5b14611719578063914c849614611606578063978beb34146115975780639807cbbb14611554578063b29211d814611328578063bc6d0ca0146111c9578063d19dc1ac146103a55763e875f006146100d857600080fd5b34610292576040366003190112610292576001600160401b0360043581811161029257610109903690600401611eab565b90916024918235828111610292576101259036906004016120d5565b909461015d83604051948593843782016002815263ffffffff9283916020968791030190205416918215159081610396575b50612320565b60005260019182815260406000209460018060a01b03848701541633036103495760ff600b8701541660048110156103345761019e90959493929515612363565b600486019060005b83811061029757505050600d8501805469ffffffffff000000000019164260281b64ffffffffff60281b161790556101e96040519560408752604087019061203f565b938585038187015281855280850196818360051b8701019781956000925b858410610236577f22da5258472cd73d7f31b0a49270ff7b59b69ff9d012cc5b29b6a141df4d43b68a8c038ba1005b909192939495969799601f198b82030184528835601e19833603018112156102925782018681019190358481116102925780360383136102925761027e889283928c956121cb565b9c9a01989796959190910193019190610207565b600080fd5b80600597949596971b890135601e198a3603018112156102925789018035908882116102925785018136038113610292578454600160401b81101561031f5788810180875581101561030a57916102fb9161030094938760005288600020016123af565b61224c565b95949392956101a6565b84634e487b7160e01b60005260326004526000fd5b84634e487b7160e01b60005260416004526000fd5b50634e487b7160e01b60009081526021600452fd5b9060216084926040519262461bcd60e51b845260048401528201527f4f6e6c7920636f6d706c61696e616e742063616e206164642065766964656e636044820152606560f81b6064820152fd5b90506000541682111538610157565b346102925760e0366003190112610292576004356001600160401b038111610292576103d5903690600401611eab565b6024356001600160401b038111610292576103f4903690600401611eab565b906044356001600160401b038111610292576104149036906004016120d5565b9290916064356001600160401b03811161029257610436903690600401611eab565b9290966084356001600160401b03811161029257610458903690600401611eab565b949060a05260a4356001600160401b0381116102925761047c903690600401611eab565b99909160c4356001600160401b0381168103610292576000549363ffffffff6104a6818716612141565b16809563ffffffff1916176000556104bd43612282565b60e0526104de6104d96104ce6121ec565b5160e051519061220d565b61221a565b608052600060c0525b6104ef6121ec565b5160c0519081101561053d576001600160f81b031990610516906105116121ec565b61225b565b511660001a61052960c05160805161225b565b5361053560c05161224c565b60c0526104e7565b508c60005b60e051805182101561058b5790610586916105628260ff60f81b9261225b565b51166105806105738360c05161220d565b9160001a9160805161225b565b5361224c565b610542565b50508b8d9b604051602081816105a960805183815193849201611c6a565b810160028152030190208863ffffffff198254161790556105d06040518061010052611f22565b60805161010051523360206101005101526105ed8d36908b611fb0565b6040610100510152610600368b8d611fb0565b606061010051015261061182612156565b9161061f6040519384611f74565b8083526020830191368260051b8201116102925780925b8260051b8201841061119d57505050506001600160401b0392610681969594926106699260806101005101523691611fb0565b60a06101005101521660c06101005101523691611fb0565b60e0610100510152610696368660a051611fb0565b6101008051015260006101206101005101526040516106b481611f3e565b6000815261014061010051015260006101606101005101526040516106d881611f3e565b6000815261018061010051015264ffffffffff42166101a061010051015264ffffffffff42166101c061010051015260006101e06101005101526000526001602052604060002061010051518051906001600160401b038211610cb157819061074b826107458654612005565b86612184565b602090601f831160011461113157600092611126575b50508160011b916000199060031b1c19161781555b6101005160208101516001830180546001600160a01b0319166001600160a01b0392909216919091179055604001518051906001600160401b038211610cb15781906107d2826107c96002870154612005565b60028701612184565b602090601f83116001146110b4576000926110a9575b50508160011b916000199060031b1c19161760028201555b60606101005101518051906001600160401b038211610cb15781906108358261082c6003870154612005565b60038701612184565b602090601f83116001146110375760009261102c575b50508160011b916000199060031b1c19161760038201555b6080610100510151805190600160401b8211610cb1576004830154826004850155808310610fb4575b5060200190600483016000526020600020916000905b828210610ed1575050505060a06101005101518051906001600160401b038211610cb15781906108e2826108d96005870154612005565b60058701612184565b602090601f8311600114610e5f57600092610e54575b50508160011b916000199060031b1c19161760058201555b60e06006820161010051906001600160401b0360c0830151166001600160401b031982541617905501518051906001600160401b038211610cb15781906109678261095e6007870154612005565b60078701612184565b602090601f8311600114610de257600092610dd7575b50508160011b916000199060031b1c19161760078201555b610100805101518051906001600160401b038211610cb15781906109c9826109c06008870154612005565b60088701612184565b602090601f8311600114610d6557600092610d5a575b50508160011b916000199060031b1c19161760088201555b610100516101208101516009830180546001600160a01b0319166001600160a01b039290921691909117905561014001518051906001600160401b038211610cb1578190610a5582610a4c600a870154612005565b600a8701612184565b602090601f8311600114610ce857600092610cdd575b50508160011b916000199060031b1c191617600a8201555b600b810161010051610160810151916004831015610cc7576101809260ff8019835416911617905501518051906001600160401b038211610cb157610ad882610acf600c860154612005565b600c8601612184565b602090601f8311600114610c0d5793610ba8600d610bec9895857f282f1357275707c5adcfabec6dc0ba002015519ec1e9311915110be7a5e9107b9b9996610bcd96610bdb9a600092610c02575b50508160011b916000199060031b1c191617600c8201555b610100516101a08101519290910180546101c083015169ffffffffffffffffffff1990911664ffffffffff9485161760289190911b64ffffffffff60281b1617815591906101e00151825464ffffffffff60501b1916911660501b64ffffffffff60501b16179055565b6040519860a08a52610bbf60a08b01608051611c8d565b918a830360208c01526121cb565b9187830360408901526121cb565b90848203606086015260a0516121cb565b9164ffffffffff421660808201528033930390a2005b015190508e80610b26565b90600c840160005260206000209160005b601f1985168110610c995750600d610bec9895600186610bcd96610bdb9a96610ba8967f282f1357275707c5adcfabec6dc0ba002015519ec1e9311915110be7a5e9107b9f9d9a601f19811610610c80575b505050811b01600c820155610b3e565b015160001960f88460031b161c191690558e8080610c70565b91926020600181928685015181550194019201610c1e565b634e487b7160e01b600052604160045260246000fd5b634e487b7160e01b600052602160045260246000fd5b015190508880610a6b565b9250600a84016000526020600020906000935b601f1984168510610d3f576001945083601f19811610610d26575b505050811b01600a820155610a83565b015160001960f88460031b161c19169055888080610d16565b81810151835560209485019460019093019290910190610cfb565b0151905088806109df565b9250600884016000526020600020906000935b601f1984168510610dbc576001945083601f19811610610da3575b505050811b0160088201556109f7565b015160001960f88460031b161c19169055888080610d93565b81810151835560209485019460019093019290910190610d78565b01519050888061097d565b9250600784016000526020600020906000935b601f1984168510610e39576001945083601f19811610610e20575b505050811b016007820155610995565b015160001960f88460031b161c19169055888080610e10565b81810151835560209485019460019093019290910190610df5565b0151905088806108f8565b9250600584016000526020600020906000935b601f1984168510610eb6576001945083601f19811610610e9d575b505050811b016005820155610910565b015160001960f88460031b161c19169055888080610e8d565b81810151835560209485019460019093019290910190610e72565b80518051906001600160401b038211610cb157610ef882610ef28854612005565b88612184565b602090601f8311600114610f44579282600194936020938695600092610f39575b5050600019600383901b1c191690841b1787555b019401910190926108a2565b015190508f80610f19565b908660005260206000209160005b601f1985168110610f9c575083602093600196938796938794601f19811610610f83575b505050811b018755610f2d565b015160001960f88460031b161c191690558f8080610f76565b91926020600181928685015181550194019201610f52565b600484016000526020600020908382015b8183018110610fd557505061088c565b80610fe260019254612005565b80610fef575b5001610fc5565b601f811183146110055750600081555b8c610fe8565b600090828252611023601f60208420920160051c820185830161216d565b81835555610fff565b01519050888061084b565b9250600384016000526020600020906000935b601f198416851061108e576001945083601f19811610611075575b505050811b016003820155610863565b015160001960f88460031b161c19169055888080611065565b8181015183556020948501946001909301929091019061104a565b0151905088806107e8565b9250600284016000526020600020906000935b601f198416851061110b576001945083601f198116106110f2575b505050811b016002820155610800565b015160001960f88460031b161c191690558880806110e2565b818101518355602094850194600190930192909101906110c7565b015190508880610761565b9250836000526020600020906000935b601f1984168510611182576001945083601f19811610611169575b505050811b018155610776565b015160001960f88460031b161c1916905588808061115c565b81810151835560209485019460019093019290910190611141565b83356001600160401b038111610292576020916111be839236908601611fe7565b815201930192610636565b34610292576020366003190112610292576004356001600160401b038111610292576111f9903690600401611eab565b6040518183823761122b8282016002815282602063ffffffff9485930301902054169182151590816113195750612320565b6000526001602052604060002090600b820180549360ff85166004811015610cc7576112d4576112b47f6697282984380298158f88b19006584c4407d82776bd81b747557df6a6a0908f946112c6936003600d9860ff191617905564ffffffffff4216968791019064ffffffffff60281b82549160281b169064ffffffffff60281b1916179055565b604051926040845260408401916121cb565b9260208201528033930390a2005b60405162461bcd60e51b815260206004820152601d60248201527f436f6d706c61696e742063616e6e6f7420626520657363616c617465640000006044820152606490fd5b90506000541682111585610157565b346102925760203660031901126102925760043563ffffffff8116809103610292576000526001602052604060002060405180611365818461203f565b036113709082611f74565b60018201546040516001600160a01b0391821693909182611394816002850161203f565b0361139f9084611f74565b60405190816113b1816003860161203f565b036113bc9083611f74565b60405190816113ce816005870161203f565b036113d99083611f74565b60068401546001600160401b031690604051808060078801906113fb9161203f565b036114069082611f74565b60405191826114188160088a0161203f565b036114239084611f74565b60098701541692604051948580600a8a019061143e9161203f565b036114499087611f74565b600b88015460ff1696604051988980600c8301906114669161203f565b03611471908b611f74565b600d015499604051809d819d6101e0808452830161148e91611c8d565b91602001528c80820390604001526114a591611c8d565b8b810360608d01526114b691611c8d565b8a810360808c01526114c791611c8d565b9060a08a015288810360c08a01526114de91611c8d565b87810360e08901526114ef91611c8d565b9061010087015285810361012087015261150891611c8d565b90610140850161151791611cb2565b83810361016085015261152991611c8d565b9064ffffffffff90818116610180850152818160281c166101a085015260501c166101c08301520390f35b34610292576020366003190112610292576004356001600160a01b03811690819003610292576000526003602052602060ff604060002054166040519015158152f35b34610292576020366003190112610292576004356001600160a01b0381811691829003610292576115eb907f0000000000000000000000000000000000000000000000000000000000000000163314612105565b6000908152600360205260409020805460ff19166001179055005b3461029257602080600319360112610292576001600160a01b03600435818116908190036102925763ffffffff9081600054169260009260015b818116868111611686576000526001875283836009604060002001541614611671575b61166c90612141565b611640565b9361167e61166c91612141565b949050611663565b50509092816116959116612879565b9060009260015b828116878111611707576000526001885260406000208287600983015416146116cf575b506116ca90612141565b61169c565b949061170082856116ec6116e66116ca9693612141565b9961256d565b9116906116f982896128c9565b52866128c9565b50906116c0565b604051806117158782611e49565b0390f35b34610292576000366003190112610292576040517f00000000000000000000000000000000000000000000000000000000000000006001600160a01b03168152602090f35b34610292576020366003190112610292576004356001600160401b0381116102925763ffffffff6117ac602061179981943690600401611fe7565b8160405193828580945193849201611c6a565b810160028152030190205416604051908152f35b34610292576020366003190112610292576004356001600160401b038111610292576117fc6117f6611715923690600401611eab565b9061271c565b604051918291602083526020830190611cbf565b346102925761186d61182136611ed8565b9390929133600052600360205261183f60ff60406000205416612472565b8060405193843782016002815282602063ffffffff9485930301902054169182151590816113195750612320565b6000526001602052604060002091600b830191825460ff8116906004821015610cc7577ff141f3af106f8cf8a9fcf5b4a2389055cd0e8cf2c413cbb21c0d180e43d92d36946118c983611946941590811561194b575b50612363565b6009870180546001600160a01b0319163317905560ff1990911660011790554264ffffffffff166118fe8484600a89016123af565b600d860180546effffffffffffffffffff0000000000191664ffffffffff60501b605084901b1617602883901b64ffffffffff60281b161790556040519384933397856124be565b0390a2005b6003915014896118c3565b3461029257602080600319360112610292576001600160a01b03600435818116908190036102925763ffffffff9081600054169260009260015b8181168681116119d65760005260018752838360016040600020015416146119c1575b6119bc90612141565b611990565b936119ce6119bc91612141565b9490506119b3565b50509092816119e59116612879565b9060009260015b82811687811161170757600052600188526040600020828760018301541614611a1f575b50611a1a90612141565b6119ec565b9490611a3682856116ec6116e6611a1a9693612141565b5090611a10565b34610292576020366003190112610292576004356001600160a01b038181169182900361029257611a91907f0000000000000000000000000000000000000000000000000000000000000000163314612105565b6000908152600360205260409020805460ff19169055005b3461029257600036600319011261029257602063ffffffff60005416604051908152f35b3461029257611ade61182136611ed8565b8215611b74576000526001602052604060002091600b830191825460ff8116906004821015610cc7577fbc0fd419814491691ce758d3d1a9b1edcc37c93d2b41ca0508abe315bfe7989c94611b3f83611946941590811561194b5750612363565b6009870180546001600160a01b0319163317905560ff1990911660021790554264ffffffffff166118fe8484600c89016123af565b60405162461bcd60e51b815260206004820152601d60248201527f4d7573742070726f766964652072656a656374696f6e20726561736f6e0000006044820152606490fd5b346102925760003660031901126102925763ffffffff8060005416611bdd81612879565b9060019081805b611bf7575b604051806117158682611e49565b84811690828211611c645781600052836020526040600020916000190190868211611c4e57611c42611c489288611c2e889661256d565b911690611c3b828a6128c9565b52876128c9565b50612141565b90611be4565b634e487b7160e01b600052601160045260246000fd5b50611be9565b60005b838110611c7d5750506000910152565b8181015183820152602001611c6d565b90602091611ca681518092818552858086019101611c6a565b601f01601f1916010190565b906004821015610cc75752565b90611cd38251610200808452830190611c8d565b60018060a01b0390611d12611d006020928484880151168487015260408701518682036040880152611c8d565b60608601518582036060870152611c8d565b60808501519184820360808601528251908183528083019281808460051b8301019501936000915b848310611e1b57505050505050611dec91611da3611d8f611d6a611dc59460a089015188820360a08a0152611c8d565b6001600160401b0360c08901511660c088015260e088015187820360e0890152611c8d565b610100808801519087830390880152611c8d565b9061012090818701511690850152610140808601519085830390860152611c8d565b611dd86101608086015190850190611cb2565b610180808501519084830390850152611c8d565b9164ffffffffff6101a0818184015116908401526101c0818184015116908401526101e0809201511691015290565b9091929394958480611e39600193601f198682030187528a51611c8d565b9801930193019194939290611d3a565b602080820190808352835180925260408301928160408460051b8301019501936000915b848310611e7d5750505050505090565b9091929394958480611e9b600193603f198682030187528a51611cbf565b9801930193019194939290611e6d565b9181601f84011215610292578235916001600160401b038311610292576020838186019501011161029257565b6040600319820112610292576001600160401b03916004358381116102925782611f0491600401611eab565b9390939260243591821161029257611f1e91600401611eab565b9091565b61020081019081106001600160401b03821117610cb157604052565b602081019081106001600160401b03821117610cb157604052565b604081019081106001600160401b03821117610cb157604052565b90601f801991011681019081106001600160401b03821117610cb157604052565b6001600160401b038111610cb157601f01601f191660200190565b929192611fbc82611f95565b91611fca6040519384611f74565b829481845281830111610292578281602093846000960137010152565b9080601f830112156102925781602061200293359101611fb0565b90565b90600182811c92168015612035575b602083101461201f57565b634e487b7160e01b600052602260045260246000fd5b91607f1691612014565b906000929180549161205083612005565b9182825260019384811690816000146120b25750600114612072575b50505050565b90919394506000526020928360002092846000945b83861061209e57505050500101903880808061206c565b805485870183015294019385908201612087565b9294505050602093945060ff191683830152151560051b0101903880808061206c565b9181601f84011215610292578235916001600160401b038311610292576020808501948460051b01011161029257565b1561210c57565b60405162461bcd60e51b815260206004820152600d60248201526c2737ba103a34329037bbb732b960991b6044820152606490fd5b63ffffffff809116908114611c4e5760010190565b6001600160401b038111610cb15760051b60200190565b818110612178575050565b6000815560010161216d565b9190601f811161219357505050565b6121bf926000526020600020906020601f840160051c830193106121c1575b601f0160051c019061216d565b565b90915081906121b2565b908060209392818452848401376000828201840152601f01601f1916010190565b604051906121f982611f59565b6005825264434f4d502d60d81b6020830152565b91908201809211611c4e57565b9061222482611f95565b6122316040519182611f74565b8281528092612242601f1991611f95565b0190602036910137565b6000198114611c4e5760010190565b90815181101561226c570160200190565b634e487b7160e01b600052603260045260246000fd5b80156123025780600081805b6122ea575061229c8161221a565b925b6122a757505090565b6000198101908111611c4e578091600a9160308383068101809111611c4e5760f81b6001600160f81b03191660001a906122e1908661225b565b5304908161229e565b91506122f7600a9161224c565b91048083929161228e565b5060405161230f81611f59565b60018152600360fc1b602082015290565b1561232757565b60405162461bcd60e51b8152602060048201526014602482015273125b9d985b1a590818dbdb5c1b185a5b9d08125160621b6044820152606490fd5b1561236a57565b60405162461bcd60e51b815260206004820152601b60248201527f436f6d706c61696e7420616c72656164792070726f63657373656400000000006044820152606490fd5b9092916001600160401b038111610cb1576123d4816123ce8454612005565b84612184565b6000601f821160011461240e5781929394600092612403575b50508160011b916000199060031b1c1916179055565b0135905038806123ed565b601f198216948382526020918281209281905b88821061245a57505083600195969710612440575b505050811b019055565b0135600019600384901b60f8161c19169055388080612436565b80600184968294958701358155019501920190612421565b1561247957565b60405162461bcd60e51b815260206004820152601f60248201527f4e6f742061207265676973746572656420706f6c6963652073746174696f6e006044820152606490fd5b926040926124ef916124e164ffffffffff9498979860608852606088019061203f565b9186830360208801526121cb565b9416910152565b6040519061250382611f22565b816101e060609182815260009283602083015280604083015280808301528060808301528060a08301528360c08301528060e083015280610100830152836101208301528061014083015283610160830152610180820152826101a0820152826101c08201520152565b90604080519061257c82611f22565b819381516125958161258e818561203f565b0382611f74565b835260018060a01b036001818184015416906020918287015284516125c18161258e816002890161203f565b8587015284516125d88161258e816003890161203f565b6060870152600484018054906125ed82612156565b936125fa88519586611f74565b82855260009182528082208186015b8484106126fa575050505050506080850152825161262e8161258e816005870161203f565b60a08501526001600160401b0360068301541660c085015282516126598161258e816007870161203f565b60e085015282516126718161258e816008870161203f565b61010085015260098201541661012084015281516126968161258e81600a860161203f565b61014084015260ff600b82015416906004821015610cc7576101e092600d92610160860152516126cd8161258e81600c860161203f565b610180850152015464ffffffffff908181166101a0850152818160281c166101c085015260501c16910152565b858381928c5161270e8161258e818961203f565b815201920193019290612609565b6127246124f6565b506000805463ffffffff9390841660015b85811682811161283e57808552602060018152604091828720835183810191818a82549261276284612005565b93886001821691826000146128215750506001146127e5575b5061278f925003601f198101835282611f74565b519020835183810190888b83376127b485828b81018d83820152038084520182611f74565b519020146127cd575050506127c890612141565b612735565b9250925094506120029550600192508352522061256d565b9150508a528185808c208c905b84821061280857505061278f928201013861277b565b60019193508054838588010152019101869084926127f2565b60ff1916885261278f9580151502850101925038915061277b9050565b60405162461bcd60e51b815260206004820152601360248201527210dbdb5c1b185a5b9d081b9bdd08199bdd5b99606a1b6044820152606490fd5b9061288382612156565b6128906040519182611f74565b82815280926128a1601f1991612156565b019060005b8281106128b257505050565b6020906128bd6124f6565b828285010152016128a6565b805182101561226c5760209160051b01019056fea26469706673582212208172bcfe4c15583152bd6f72a41e37196e83b2e4709fc006de68d69e1af433e064736f6c63430008120033",
  "linkReferences": {},
  "deployedLinkReferences": {}
}